{
  "contractName": "BloodDonation",
  "abi": [
    {
      "anonymous": false,
      "inputs": [
        {
          "indexed": false,
          "internalType": "address",
          "name": "donor",
          "type": "address"
        }
      ],
      "name": "BloodVerified",
      "type": "event"
    },
    {
      "anonymous": false,
      "inputs": [
        {
          "indexed": false,
          "internalType": "address",
          "name": "donor",
          "type": "address"
        }
      ],
      "name": "DataSentToHealthAuthority",
      "type": "event"
    },
    {
      "anonymous": false,
      "inputs": [
        {
          "indexed": false,
          "internalType": "address",
          "name": "donor",
          "type": "address"
        }
      ],
      "name": "DonorRequested",
      "type": "event"
    },
    {
      "anonymous": false,
      "inputs": [
        {
          "indexed": false,
          "internalType": "address",
          "name": "donor",
          "type": "address"
        },
        {
          "indexed": false,
          "internalType": "bool",
          "name": "result",
          "type": "bool"
        }
      ],
      "name": "LabTestCompleted",
      "type": "event"
    },
    {
      "inputs": [
        {
          "internalType": "string",
          "name": "",
          "type": "string"
        }
      ],
      "name": "approvedDonors",
      "outputs": [
        {
          "internalType": "bool",
          "name": "",
          "type": "bool"
        }
      ],
      "stateMutability": "view",
      "type": "function"
    },
    {
      "inputs": [
        {
          "internalType": "address",
          "name": "",
          "type": "address"
        }
      ],
      "name": "donors",
      "outputs": [
        {
          "internalType": "string",
          "name": "name",
          "type": "string"
        },
        {
          "internalType": "string",
          "name": "bloodGroup",
          "type": "string"
        },
        {
          "internalType": "bool",
          "name": "approved",
          "type": "bool"
        },
        {
          "internalType": "bool",
          "name": "tested",
          "type": "bool"
        },
        {
          "internalType": "bool",
          "name": "eligible",
          "type": "bool"
        }
      ],
      "stateMutability": "view",
      "type": "function"
    },
    {
      "inputs": [
        {
          "internalType": "string",
          "name": "_name",
          "type": "string"
        },
        {
          "internalType": "string",
          "name": "_bg",
          "type": "string"
        }
      ],
      "name": "registerDonor",
      "outputs": [],
      "stateMutability": "nonpayable",
      "type": "function"
    },
    {
      "inputs": [
        {
          "internalType": "address",
          "name": "_donor",
          "type": "address"
        },
        {
          "internalType": "bool",
          "name": "_result",
          "type": "bool"
        }
      ],
      "name": "labTest",
      "outputs": [],
      "stateMutability": "nonpayable",
      "type": "function"
    },
    {
      "inputs": [
        {
          "internalType": "address",
          "name": "_donor",
          "type": "address"
        }
      ],
      "name": "verifyBlood",
      "outputs": [],
      "stateMutability": "nonpayable",
      "type": "function"
    },
    {
      "inputs": [
        {
          "internalType": "address",
          "name": "_donor",
          "type": "address"
        }
      ],
      "name": "sendToHealthAuthority",
      "outputs": [],
      "stateMutability": "nonpayable",
      "type": "function"
    },
    {
      "inputs": [
        {
          "internalType": "string",
          "name": "donor",
          "type": "string"
        }
      ],
      "name": "approveDonor",
      "outputs": [],
      "stateMutability": "nonpayable",
      "type": "function"
    },
    {
      "inputs": [
        {
          "internalType": "string",
          "name": "donor",
          "type": "string"
        }
      ],
      "name": "isApproved",
      "outputs": [
        {
          "internalType": "bool",
          "name": "",
          "type": "bool"
        }
      ],
      "stateMutability": "view",
      "type": "function"
    }
  ],
  "bytecode": "0x608060405234801561001057600080fd5b50610ec7806100206000396000f3fe608060405234801561001057600080fd5b50600436106100885760003560e01c8063c86a05211161005b578063c86a0521146100fd578063ca0cdea814610119578063dac6dddb1461014d578063f31fbc9f1461017d57610088565b80633e0499b31461008d57806348136c11146100a95780634b583302146100c5578063a577589e146100e1575b600080fd5b6100a760048036038101906100a291906108f3565b6101ad565b005b6100c360048036038101906100be9190610958565b6102cf565b005b6100df60048036038101906100da91906108f3565b6103bf565b005b6100fb60048036038101906100f69190610ade565b610487565b005b61011760048036038101906101129190610b56565b6105cd565b005b610133600480360381019061012e91906108f3565b610606565b604051610144959493929190610c36565b60405180910390f35b61016760048036038101906101629190610b56565b610773565b6040516101749190610c97565b60405180910390f35b61019760048036038101906101929190610b56565b6107a9565b6040516101a49190610c97565b60405180910390f35b6000808273ffffffffffffffffffffffffffffffffffffffff1673ffffffffffffffffffffffffffffffffffffffff16815260200190815260200160002060020160029054906101000a900460ff1661023b576040517f08c379a000000000000000000000000000000000000000000000000000000000815260040161023290610cfe565b60405180910390fd5b60016000808373ffffffffffffffffffffffffffffffffffffffff1673ffffffffffffffffffffffffffffffffffffffff16815260200190815260200160002060020160006101000a81548160ff0219169083151502179055507fd9c5e10d5f9f335e6d0a78579a571a2b8e5b26c161e6aaae4083f5a7dbc8f7dc816040516102c49190610d2d565b60405180910390a150565b60016000808473ffffffffffffffffffffffffffffffffffffffff1673ffffffffffffffffffffffffffffffffffffffff16815260200190815260200160002060020160016101000a81548160ff021916908315150217905550806000808473ffffffffffffffffffffffffffffffffffffffff1673ffffffffffffffffffffffffffffffffffffffff16815260200190815260200160002060020160026101000a81548160ff0219169083151502179055507f8c8fbe87ff58351f7a470c1429fa470a6985a7a43fbd2b64c813c08d3484b69582826040516103b3929190610d48565b60405180910390a15050565b6000808273ffffffffffffffffffffffffffffffffffffffff1673ffffffffffffffffffffffffffffffffffffffff16815260200190815260200160002060020160009054906101000a900460ff1661044d576040517f08c379a000000000000000000000000000000000000000000000000000000000815260040161044490610dbd565b60405180910390fd5b7f18932152b501a94115c1d3305dd418d0f33811ee36c68c6489eb41fdd76073a98160405161047c9190610d2d565b60405180910390a150565b6040518060a00160405280838152602001828152602001600015158152602001600015158152602001600015158152506000803373ffffffffffffffffffffffffffffffffffffffff1673ffffffffffffffffffffffffffffffffffffffff16815260200190815260200160002060008201518160000190805190602001906105119291906107de565b50602082015181600101908051906020019061052e9291906107de565b5060408201518160020160006101000a81548160ff02191690831515021790555060608201518160020160016101000a81548160ff02191690831515021790555060808201518160020160026101000a81548160ff0219169083151502179055509050507f09690ffe74084c7835336606a66ae29069a0a4f043d3d163e6672777d3d1cf2f336040516105c19190610d2d565b60405180910390a15050565b600180826040516105de9190610e19565b908152602001604051809103902060006101000a81548160ff02191690831515021790555050565b600060205280600052604060002060009150905080600001805461062990610e5f565b80601f016020809104026020016040519081016040528092919081815260200182805461065590610e5f565b80156106a25780601f10610677576101008083540402835291602001916106a2565b820191906000526020600020905b81548152906001019060200180831161068557829003601f168201915b5050505050908060010180546106b790610e5f565b80601f01602080910402602001604051908101604052809291908181526020018280546106e390610e5f565b80156107305780601f1061070557610100808354040283529160200191610730565b820191906000526020600020905b81548152906001019060200180831161071357829003601f168201915b5050505050908060020160009054906101000a900460ff16908060020160019054906101000a900460ff16908060020160029054906101000a900460ff16905085565b6001818051602081018201805184825260208301602085012081835280955050505050506000915054906101000a900460ff1681565b60006001826040516107bb9190610e19565b908152602001604051809103902060009054906101000a900460ff169050919050565b8280546107ea90610e5f565b90600052602060002090601f01602090048101928261080c5760008555610853565b82601f1061082557805160ff1916838001178555610853565b82800160010185558215610853579182015b82811115610852578251825591602001919060010190610837565b5b5090506108609190610864565b5090565b5b8082111561087d576000816000905550600101610865565b5090565b6000604051905090565b600080fd5b600080fd5b600073ffffffffffffffffffffffffffffffffffffffff82169050919050565b60006108c082610895565b9050919050565b6108d0816108b5565b81146108db57600080fd5b50565b6000813590506108ed816108c7565b92915050565b6000602082840312156109095761090861088b565b5b6000610917848285016108de565b91505092915050565b60008115159050919050565b61093581610920565b811461094057600080fd5b50565b6000813590506109528161092c565b92915050565b6000806040838503121561096f5761096e61088b565b5b600061097d858286016108de565b925050602061098e85828601610943565b9150509250929050565b600080fd5b600080fd5b6000601f19601f8301169050919050565b7f4e487b7100000000000000000000000000000000000000000000000000000000600052604160045260246000fd5b6109eb826109a2565b810181811067ffffffffffffffff82111715610a0a57610a096109b3565b5b80604052505050565b6000610a1d610881565b9050610a2982826109e2565b919050565b600067ffffffffffffffff821115610a4957610a486109b3565b5b610a52826109a2565b9050602081019050919050565b82818337600083830152505050565b6000610a81610a7c84610a2e565b610a13565b905082815260208101848484011115610a9d57610a9c61099d565b5b610aa8848285610a5f565b509392505050565b600082601f830112610ac557610ac4610998565b5b8135610ad5848260208601610a6e565b91505092915050565b60008060408385031215610af557610af461088b565b5b600083013567ffffffffffffffff811115610b1357610b12610890565b5b610b1f85828601610ab0565b925050602083013567ffffffffffffffff811115610b4057610b3f610890565b5b610b4c85828601610ab0565b9150509250929050565b600060208284031215610b6c57610b6b61088b565b5b600082013567ffffffffffffffff811115610b8a57610b89610890565b5b610b9684828501610ab0565b91505092915050565b600081519050919050565b600082825260208201905092915050565b60005b83811015610bd9578082015181840152602081019050610bbe565b83811115610be8576000848401525b50505050565b6000610bf982610b9f565b610c038185610baa565b9350610c13818560208601610bbb565b610c1c816109a2565b840191505092915050565b610c3081610920565b82525050565b600060a0820190508181036000830152610c508188610bee565b90508181036020830152610c648187610bee565b9050610c736040830186610c27565b610c806060830185610c27565b610c8d6080830184610c27565b9695505050505050565b6000602082019050610cac6000830184610c27565b92915050565b7f4e6f7420656c696769626c650000000000000000000000000000000000000000600082015250565b6000610ce8600c83610baa565b9150610cf382610cb2565b602082019050919050565b60006020820190508181036000830152610d1781610cdb565b9050919050565b610d27816108b5565b82525050565b6000602082019050610d426000830184610d1e565b92915050565b6000604082019050610d5d6000830185610d1e565b610d6a6020830184610c27565b9392505050565b7f4e6f742076657269666965640000000000000000000000000000000000000000600082015250565b6000610da7600c83610baa565b9150610db282610d71565b602082019050919050565b60006020820190508181036000830152610dd681610d9a565b9050919050565b600081905092915050565b6000610df382610b9f565b610dfd8185610ddd565b9350610e0d818560208601610bbb565b80840191505092915050565b6000610e258284610de8565b915081905092915050565b7f4e487b7100000000000000000000000000000000000000000000000000000000600052602260045260246000fd5b60006002820490506001821680610e7757607f821691505b60208210811415610e8b57610e8a610e30565b5b5091905056fea2646970667358221220bff2bdeb0786d29fd44360d527aeebea4ebb770cc20b6543326d45256b84fc4864736f6c634300080c0033",
  "immutableReferences": {},
  "source": "// SPDX-License-Identifier: MIT\r\npragma solidity ^0.8.0;\r\n\r\ncontract BloodDonation {\r\n\r\n    struct Donor {\r\n        string name;\r\n        string bloodGroup;\r\n        bool approved;\r\n        bool tested;\r\n        bool eligible;\r\n    }\r\n\r\n    mapping(address => Donor) public donors;\r\n\r\n    event DonorRequested(address donor);\r\n    event LabTestCompleted(address donor, bool result);\r\n    event BloodVerified(address donor);\r\n    event DataSentToHealthAuthority(address donor);\r\n\r\n    function registerDonor(string memory _name, string memory _bg) public {\r\n        donors[msg.sender] = Donor(_name, _bg, false, false, false);\r\n        emit DonorRequested(msg.sender);\r\n    }\r\n\r\n    function labTest(address _donor, bool _result) public {\r\n        donors[_donor].tested = true;\r\n        donors[_donor].eligible = _result;\r\n        emit LabTestCompleted(_donor, _result);\r\n    }\r\n\r\n    function verifyBlood(address _donor) public {\r\n        require(donors[_donor].eligible, \"Not eligible\");\r\n        donors[_donor].approved = true;\r\n        emit BloodVerified(_donor);\r\n    }\r\n\r\n    function sendToHealthAuthority(address _donor) public {\r\n        require(donors[_donor].approved, \"Not verified\");\r\n        emit DataSentToHealthAuthority(_donor);\r\n    }\r\n\r\n    mapping(string => bool) public approvedDonors;\r\n\r\n    function approveDonor(string memory donor) public {\r\n        approvedDonors[donor] = true;\r\n    }\r\n\r\n    function isApproved(string memory donor) public view returns(bool) {\r\n        return approvedDonors[donor];\r\n    }\r\n\r\n}\r\n",
  "sourcePath": "C:\\Users\\Admin\\OneDrive\\Documents\\sej\\TY\\project last sem\\BLOOD-DONATION-SUPPLY-CHAIN-TRACEABILITY\\contracts\\BloodSupplyChain.sol",
  "compiler": {
    "name": "solc",
    "version": "0.8.12+commit.f00d7308.Emscripten.clang"
  },
  "schemaVersion": "3.4.16",
  "updatedAt": "2026-01-01T09:57:45.986Z",
  "devdoc": {
    "kind": "dev",
    "methods": {},
    "version": 1
  },
  "userdoc": {
    "kind": "user",
    "methods": {},
    "version": 1
  }
}