{
  "contractName": "BloodDonationSystem",
  "abi": [
    {
      "anonymous": false,
      "inputs": [
        {
          "indexed": false,
          "internalType": "bytes32",
          "name": "donorId",
          "type": "bytes32"
        }
      ],
      "name": "BloodInTransit",
      "type": "event"
    },
    {
      "anonymous": false,
      "inputs": [
        {
          "indexed": false,
          "internalType": "bytes32",
          "name": "donorId",
          "type": "bytes32"
        }
      ],
      "name": "BloodSentToBank",
      "type": "event"
    },
    {
      "anonymous": false,
      "inputs": [
        {
          "indexed": false,
          "internalType": "bytes32",
          "name": "donorId",
          "type": "bytes32"
        }
      ],
      "name": "BloodVerified",
      "type": "event"
    },
    {
      "anonymous": false,
      "inputs": [
        {
          "indexed": false,
          "internalType": "bytes32",
          "name": "donorId",
          "type": "bytes32"
        }
      ],
      "name": "DataSentToAuthority",
      "type": "event"
    },
    {
      "anonymous": false,
      "inputs": [
        {
          "indexed": false,
          "internalType": "bytes32",
          "name": "donorId",
          "type": "bytes32"
        }
      ],
      "name": "DonationRequested",
      "type": "event"
    },
    {
      "anonymous": false,
      "inputs": [
        {
          "indexed": false,
          "internalType": "bytes32",
          "name": "donorId",
          "type": "bytes32"
        }
      ],
      "name": "DonorAccepted",
      "type": "event"
    },
    {
      "anonymous": false,
      "inputs": [
        {
          "indexed": false,
          "internalType": "bytes32",
          "name": "donorId",
          "type": "bytes32"
        }
      ],
      "name": "DonorRejected",
      "type": "event"
    },
    {
      "anonymous": false,
      "inputs": [
        {
          "indexed": false,
          "internalType": "bytes32",
          "name": "donorId",
          "type": "bytes32"
        }
      ],
      "name": "GovernmentDataStored",
      "type": "event"
    },
    {
      "anonymous": false,
      "inputs": [
        {
          "indexed": false,
          "internalType": "bytes32",
          "name": "donorId",
          "type": "bytes32"
        },
        {
          "indexed": false,
          "internalType": "bool",
          "name": "passed",
          "type": "bool"
        }
      ],
      "name": "TestResultSent",
      "type": "event"
    },
    {
      "anonymous": false,
      "inputs": [
        {
          "indexed": false,
          "internalType": "bytes32",
          "name": "donorId",
          "type": "bytes32"
        },
        {
          "indexed": false,
          "internalType": "uint256",
          "name": "time",
          "type": "uint256"
        }
      ],
      "name": "TestScheduled",
      "type": "event"
    },
    {
      "inputs": [
        {
          "internalType": "bytes32",
          "name": "",
          "type": "bytes32"
        }
      ],
      "name": "bloodUnits",
      "outputs": [
        {
          "internalType": "bool",
          "name": "sentToBank",
          "type": "bool"
        },
        {
          "internalType": "bool",
          "name": "verified",
          "type": "bool"
        },
        {
          "internalType": "bool",
          "name": "sentToAuthority",
          "type": "bool"
        }
      ],
      "stateMutability": "view",
      "type": "function"
    },
    {
      "inputs": [
        {
          "internalType": "bytes32",
          "name": "",
          "type": "bytes32"
        }
      ],
      "name": "donors",
      "outputs": [
        {
          "internalType": "bytes32",
          "name": "donorId",
          "type": "bytes32"
        },
        {
          "internalType": "string",
          "name": "bloodGroup",
          "type": "string"
        },
        {
          "internalType": "bool",
          "name": "requested",
          "type": "bool"
        },
        {
          "internalType": "bool",
          "name": "eligible",
          "type": "bool"
        },
        {
          "internalType": "bool",
          "name": "donated",
          "type": "bool"
        }
      ],
      "stateMutability": "view",
      "type": "function"
    },
    {
      "inputs": [
        {
          "internalType": "bytes32",
          "name": "",
          "type": "bytes32"
        }
      ],
      "name": "testResults",
      "outputs": [
        {
          "internalType": "bool",
          "name": "tested",
          "type": "bool"
        },
        {
          "internalType": "bool",
          "name": "passed",
          "type": "bool"
        }
      ],
      "stateMutability": "view",
      "type": "function"
    },
    {
      "inputs": [
        {
          "internalType": "bytes32",
          "name": "donorId",
          "type": "bytes32"
        },
        {
          "internalType": "string",
          "name": "bloodGroup",
          "type": "string"
        }
      ],
      "name": "requestDonation",
      "outputs": [],
      "stateMutability": "nonpayable",
      "type": "function"
    },
    {
      "inputs": [
        {
          "internalType": "bytes32",
          "name": "donorId",
          "type": "bytes32"
        },
        {
          "internalType": "bool",
          "name": "passed",
          "type": "bool"
        }
      ],
      "name": "sendTestResult",
      "outputs": [],
      "stateMutability": "nonpayable",
      "type": "function"
    },
    {
      "inputs": [
        {
          "internalType": "bytes32",
          "name": "donorId",
          "type": "bytes32"
        }
      ],
      "name": "hospitalDecision",
      "outputs": [],
      "stateMutability": "nonpayable",
      "type": "function"
    },
    {
      "inputs": [
        {
          "internalType": "bytes32",
          "name": "donorId",
          "type": "bytes32"
        }
      ],
      "name": "sendBloodToBank",
      "outputs": [],
      "stateMutability": "nonpayable",
      "type": "function"
    },
    {
      "inputs": [
        {
          "internalType": "bytes32",
          "name": "donorId",
          "type": "bytes32"
        }
      ],
      "name": "verifyBlood",
      "outputs": [],
      "stateMutability": "nonpayable",
      "type": "function"
    },
    {
      "inputs": [
        {
          "internalType": "bytes32",
          "name": "donorId",
          "type": "bytes32"
        }
      ],
      "name": "sendToHealthAuthority",
      "outputs": [],
      "stateMutability": "nonpayable",
      "type": "function"
    },
    {
      "inputs": [
        {
          "internalType": "bytes32",
          "name": "donorId",
          "type": "bytes32"
        }
      ],
      "name": "storeGovernmentData",
      "outputs": [],
      "stateMutability": "nonpayable",
      "type": "function"
    }
  ],
  "bytecode": "0x608060405234801561001057600080fd5b50611119806100206000396000f3fe608060405234801561001057600080fd5b506004361061009e5760003560e01c8063bae69dbe11610066578063bae69dbe1461015d578063c425fd301461018e578063cce99262146101aa578063dec649f7146101c6578063ed5fcd18146101e25761009e565b8063104187cf146100a357806344d6ff4f146100d55780638f041f7314610109578063b32dd24d14610125578063b34f984614610141575b600080fd5b6100bd60048036038101906100b89190610a7b565b6101fe565b6040516100cc93929190610ac3565b60405180910390f35b6100ef60048036038101906100ea9190610a7b565b61024f565b604051610100959493929190610ba2565b60405180910390f35b610123600480360381019061011e9190610a7b565b610334565b005b61013f600480360381019061013a9190610a7b565b610400565b005b61015b60048036038101906101569190610d31565b61049d565b005b61017760048036038101906101729190610a7b565b6105a4565b604051610185929190610d8d565b60405180910390f35b6101a860048036038101906101a39190610a7b565b6105e2565b005b6101c460048036038101906101bf9190610a7b565b6106e4565b005b6101e060048036038101906101db9190610a7b565b610815565b005b6101fc60048036038101906101f79190610de2565b6108e1565b005b60026020528060005260406000206000915090508060000160009054906101000a900460ff16908060000160019054906101000a900460ff16908060000160029054906101000a900460ff16905083565b600060205280600052604060002060009150905080600001549080600101805461027890610e51565b80601f01602080910402602001604051908101604052809291908181526020018280546102a490610e51565b80156102f15780601f106102c6576101008083540402835291602001916102f1565b820191906000526020600020905b8154815290600101906020018083116102d457829003601f168201915b5050505050908060020160009054906101000a900460ff16908060020160019054906101000a900460ff16908060020160029054906101000a900460ff16905085565b6002600082815260200190815260200160002060000160019054906101000a900460ff16610397576040517f08c379a000000000000000000000000000000000000000000000000000000000815260040161038e90610ecf565b60405180910390fd5b60016002600083815260200190815260200160002060000160026101000a81548160ff0219169083151502179055507f7a4d065a9f64a5ac0f2872029eaadd22dd3f2bb9fdb8242fbe528bde114588c2816040516103f59190610eef565b60405180910390a150565b6002600082815260200190815260200160002060000160029054906101000a900460ff16610463576040517f08c379a000000000000000000000000000000000000000000000000000000000815260040161045a90610f56565b60405180910390fd5b7f4da7c4fa21e71e9958f08c18c8574c657aee211dc32e9a8b60fa71cf89c89928816040516104929190610eef565b60405180910390a150565b6040518060a001604052808381526020018281526020016001151581526020016000151581526020016000151581525060008084815260200190815260200160002060008201518160000155602082015181600101908051906020019061050592919061098e565b5060408201518160020160006101000a81548160ff02191690831515021790555060608201518160020160016101000a81548160ff02191690831515021790555060808201518160020160026101000a81548160ff0219169083151502179055509050507fd3bdb2ad667721c223e6421d494a59adfc3e9e5f7d6572df91e176a4c9faa924826040516105989190610eef565b60405180910390a15050565b60016020528060005260406000206000915090508060000160009054906101000a900460ff16908060000160019054906101000a900460ff16905082565b60008082815260200190815260200160002060020160019054906101000a900460ff16610644576040517f08c379a000000000000000000000000000000000000000000000000000000000815260040161063b90610fc2565b60405180910390fd5b60016002600083815260200190815260200160002060000160006101000a81548160ff0219169083151502179055507f6a7082f923ee7939e9fc63e28c6ec6f697e8fad9ed033d885d7b9b95946740dd816040516106a29190610eef565b60405180910390a17f9e4b7b2d193d139c5c51e6b893c922e2180404bd8a7849e7386981ebfed13816816040516106d99190610eef565b60405180910390a150565b6001600082815260200190815260200160002060000160009054906101000a900460ff16610747576040517f08c379a000000000000000000000000000000000000000000000000000000000815260040161073e9061102e565b60405180910390fd5b6001600082815260200190815260200160002060000160019054906101000a900460ff16156107da57600160008083815260200190815260200160002060020160016101000a81548160ff0219169083151502179055507f32a1ff4b95b0530b0d00ffbb3fcb4727c241d9ba50b01fca1f08ca818e5cde49816040516107cd9190610eef565b60405180910390a1610812565b7f646ef331dab2a9fd32c9282f9f1cca50731f4dd83ad44ccff1f17dbc59bc8c73816040516108099190610eef565b60405180910390a15b50565b6002600082815260200190815260200160002060000160009054906101000a900460ff16610878576040517f08c379a000000000000000000000000000000000000000000000000000000000815260040161086f9061109a565b60405180910390fd5b60016002600083815260200190815260200160002060000160016101000a81548160ff0219169083151502179055507f248bb1e10ae385ce2a8e820bee58053ab114ed98688409d8c7adce52444384a0816040516108d69190610eef565b60405180910390a150565b60405180604001604052806001151581526020018215158152506001600084815260200190815260200160002060008201518160000160006101000a81548160ff02191690831515021790555060208201518160000160016101000a81548160ff0219169083151502179055509050507f06cf47839adadc1a30e86f1d61d905b3b83028c7c799112c508d159ac1beb0a182826040516109829291906110ba565b60405180910390a15050565b82805461099a90610e51565b90600052602060002090601f0160209004810192826109bc5760008555610a03565b82601f106109d557805160ff1916838001178555610a03565b82800160010185558215610a03579182015b82811115610a025782518255916020019190600101906109e7565b5b509050610a109190610a14565b5090565b5b80821115610a2d576000816000905550600101610a15565b5090565b6000604051905090565b600080fd5b600080fd5b6000819050919050565b610a5881610a45565b8114610a6357600080fd5b50565b600081359050610a7581610a4f565b92915050565b600060208284031215610a9157610a90610a3b565b5b6000610a9f84828501610a66565b91505092915050565b60008115159050919050565b610abd81610aa8565b82525050565b6000606082019050610ad86000830186610ab4565b610ae56020830185610ab4565b610af26040830184610ab4565b949350505050565b610b0381610a45565b82525050565b600081519050919050565b600082825260208201905092915050565b60005b83811015610b43578082015181840152602081019050610b28565b83811115610b52576000848401525b50505050565b6000601f19601f8301169050919050565b6000610b7482610b09565b610b7e8185610b14565b9350610b8e818560208601610b25565b610b9781610b58565b840191505092915050565b600060a082019050610bb76000830188610afa565b8181036020830152610bc98187610b69565b9050610bd86040830186610ab4565b610be56060830185610ab4565b610bf26080830184610ab4565b9695505050505050565b600080fd5b600080fd5b7f4e487b7100000000000000000000000000000000000000000000000000000000600052604160045260246000fd5b610c3e82610b58565b810181811067ffffffffffffffff82111715610c5d57610c5c610c06565b5b80604052505050565b6000610c70610a31565b9050610c7c8282610c35565b919050565b600067ffffffffffffffff821115610c9c57610c9b610c06565b5b610ca582610b58565b9050602081019050919050565b82818337600083830152505050565b6000610cd4610ccf84610c81565b610c66565b905082815260208101848484011115610cf057610cef610c01565b5b610cfb848285610cb2565b509392505050565b600082601f830112610d1857610d17610bfc565b5b8135610d28848260208601610cc1565b91505092915050565b60008060408385031215610d4857610d47610a3b565b5b6000610d5685828601610a66565b925050602083013567ffffffffffffffff811115610d7757610d76610a40565b5b610d8385828601610d03565b9150509250929050565b6000604082019050610da26000830185610ab4565b610daf6020830184610ab4565b9392505050565b610dbf81610aa8565b8114610dca57600080fd5b50565b600081359050610ddc81610db6565b92915050565b60008060408385031215610df957610df8610a3b565b5b6000610e0785828601610a66565b9250506020610e1885828601610dcd565b9150509250929050565b7f4e487b7100000000000000000000000000000000000000000000000000000000600052602260045260246000fd5b60006002820490506001821680610e6957607f821691505b60208210811415610e7d57610e7c610e22565b5b50919050565b7f426c6f6f64206e6f742076657269666965640000000000000000000000000000600082015250565b6000610eb9601283610b14565b9150610ec482610e83565b602082019050919050565b60006020820190508181036000830152610ee881610eac565b9050919050565b6000602082019050610f046000830184610afa565b92915050565b7f44617461206e6f74207265636569766564000000000000000000000000000000600082015250565b6000610f40601183610b14565b9150610f4b82610f0a565b602082019050919050565b60006020820190508181036000830152610f6f81610f33565b9050919050565b7f446f6e6f72206e6f7420656c696769626c650000000000000000000000000000600082015250565b6000610fac601283610b14565b9150610fb782610f76565b602082019050919050565b60006020820190508181036000830152610fdb81610f9f565b9050919050565b7f54657374206e6f7420646f6e6500000000000000000000000000000000000000600082015250565b6000611018600d83610b14565b915061102382610fe2565b602082019050919050565b600060208201905081810360008301526110478161100b565b9050919050565b7f426c6f6f64206e6f742072656365697665640000000000000000000000000000600082015250565b6000611084601283610b14565b915061108f8261104e565b602082019050919050565b600060208201905081810360008301526110b381611077565b9050919050565b60006040820190506110cf6000830185610afa565b6110dc6020830184610ab4565b939250505056fea2646970667358221220f5496a24ba2efce0fbee3a4a5e5fdf8c7295f8227237cc5d04999ce64d1ef19d64736f6c634300080c0033",
  "immutableReferences": {},
  "source": "// SPDX-License-Identifier: MIT\r\npragma solidity ^0.8.12;\r\n\r\ncontract BloodDonationSystem {\r\n\r\n    /* -------------------- STRUCTS -------------------- */\r\n\r\n    struct Donor {\r\n        bytes32 donorId;\r\n        string bloodGroup;\r\n        bool requested;\r\n        bool eligible;\r\n        bool donated;\r\n    }\r\n\r\n    struct TestResult {\r\n        bool tested;\r\n        bool passed;\r\n    }\r\n\r\n    struct BloodUnit {\r\n        bool sentToBank;\r\n        bool verified;\r\n        bool sentToAuthority;\r\n    }\r\n\r\n    /* -------------------- STORAGE -------------------- */\r\n\r\n    mapping(bytes32 => Donor) public donors;\r\n    mapping(bytes32 => TestResult) public testResults;\r\n    mapping(bytes32 => BloodUnit) public bloodUnits;\r\n\r\n    /* -------------------- EVENTS (TRACEABILITY) -------------------- */\r\n\r\n    event DonationRequested(bytes32 donorId);\r\n    event TestScheduled(bytes32 donorId, uint256 time);\r\n    event TestResultSent(bytes32 donorId, bool passed);\r\n    event DonorAccepted(bytes32 donorId);\r\n    event DonorRejected(bytes32 donorId);\r\n    event BloodSentToBank(bytes32 donorId);\r\n    event BloodVerified(bytes32 donorId);\r\n    event DataSentToAuthority(bytes32 donorId);\r\n    event GovernmentDataStored(bytes32 donorId);\r\n    event BloodInTransit(bytes32 donorId);\r\n\r\n    /* -------------------- DONOR -------------------- */\r\n\r\n    function requestDonation(bytes32 donorId, string memory bloodGroup) public {\r\n        donors[donorId] = Donor(donorId, bloodGroup, true, false, false);\r\n        emit DonationRequested(donorId);\r\n    }\r\n\r\n    /* -------------------- LAB AUTHORITY -------------------- */\r\n\r\n    function sendTestResult(bytes32 donorId, bool passed) public {\r\n        testResults[donorId] = TestResult(true, passed);\r\n        emit TestResultSent(donorId, passed);\r\n    }\r\n\r\n    /* -------------------- HOSPITAL -------------------- */\r\n\r\n    function hospitalDecision(bytes32 donorId) public {\r\n        require(testResults[donorId].tested, \"Test not done\");\r\n\r\n        if (testResults[donorId].passed) {\r\n            donors[donorId].eligible = true;\r\n            emit DonorAccepted(donorId);\r\n        } else {\r\n            emit DonorRejected(donorId);\r\n        }\r\n    }\r\n\r\n    function sendBloodToBank(bytes32 donorId) public {\r\n        require(donors[donorId].eligible, \"Donor not eligible\");\r\n        bloodUnits[donorId].sentToBank = true;\r\n        emit BloodSentToBank(donorId);\r\n        emit BloodInTransit(donorId);\r\n    }\r\n\r\n    /* -------------------- BLOOD BANK -------------------- */\r\n\r\n    function verifyBlood(bytes32 donorId) public {\r\n        require(bloodUnits[donorId].sentToBank, \"Blood not received\");\r\n        bloodUnits[donorId].verified = true;\r\n        emit BloodVerified(donorId);\r\n    }\r\n\r\n    function sendToHealthAuthority(bytes32 donorId) public {\r\n        require(bloodUnits[donorId].verified, \"Blood not verified\");\r\n        bloodUnits[donorId].sentToAuthority = true;\r\n        emit DataSentToAuthority(donorId);\r\n    }\r\n\r\n    /* -------------------- HEALTH AUTHORITY -------------------- */\r\n\r\n    function storeGovernmentData(bytes32 donorId) public {\r\n        require(bloodUnits[donorId].sentToAuthority, \"Data not received\");\r\n        emit GovernmentDataStored(donorId);\r\n    }\r\n}\r\n",
  "sourcePath": "C:\\Users\\Admin\\OneDrive\\Documents\\sej\\TY\\project last sem\\BLOOD-DONATION-SUPPLY-CHAIN-TRACEABILITY\\contracts\\BloodSupplyChain.sol",
  "compiler": {
    "name": "solc",
    "version": "0.8.12+commit.f00d7308.Emscripten.clang"
  },
  "schemaVersion": "3.4.16",
  "updatedAt": "2025-12-30T09:29:38.670Z",
  "devdoc": {
    "kind": "dev",
    "methods": {},
    "version": 1
  },
  "userdoc": {
    "kind": "user",
    "methods": {},
    "version": 1
  }
}