{
  "contractName": "BloodSupplyChain",
  "abi": [
    {
      "anonymous": false,
      "inputs": [
        {
          "indexed": false,
          "internalType": "address",
          "name": "donor",
          "type": "address"
        },
        {
          "indexed": false,
          "internalType": "string",
          "name": "hospital",
          "type": "string"
        },
        {
          "indexed": false,
          "internalType": "uint256",
          "name": "time",
          "type": "uint256"
        }
      ],
      "name": "BloodDonated",
      "type": "event"
    },
    {
      "anonymous": false,
      "inputs": [
        {
          "indexed": false,
          "internalType": "bytes32",
          "name": "donorId",
          "type": "bytes32"
        }
      ],
      "name": "BloodStored",
      "type": "event"
    },
    {
      "anonymous": false,
      "inputs": [
        {
          "indexed": false,
          "internalType": "bytes32",
          "name": "donorId",
          "type": "bytes32"
        }
      ],
      "name": "BloodTransported",
      "type": "event"
    },
    {
      "anonymous": false,
      "inputs": [
        {
          "indexed": false,
          "internalType": "bytes32",
          "name": "donorId",
          "type": "bytes32"
        }
      ],
      "name": "BloodUsed",
      "type": "event"
    },
    {
      "anonymous": false,
      "inputs": [
        {
          "indexed": false,
          "internalType": "bytes32",
          "name": "donorId",
          "type": "bytes32"
        }
      ],
      "name": "DonationRequested",
      "type": "event"
    },
    {
      "anonymous": false,
      "inputs": [
        {
          "indexed": false,
          "internalType": "bytes32",
          "name": "donorId",
          "type": "bytes32"
        }
      ],
      "name": "SampleCollected",
      "type": "event"
    },
    {
      "inputs": [
        {
          "internalType": "bytes32",
          "name": "",
          "type": "bytes32"
        }
      ],
      "name": "bloodUnits",
      "outputs": [
        {
          "internalType": "bytes32",
          "name": "donorId",
          "type": "bytes32"
        },
        {
          "internalType": "string",
          "name": "bloodGroup",
          "type": "string"
        },
        {
          "internalType": "enum BloodSupplyChain.BloodStatus",
          "name": "status",
          "type": "uint8"
        },
        {
          "internalType": "uint256",
          "name": "timestamp",
          "type": "uint256"
        }
      ],
      "stateMutability": "view",
      "type": "function",
      "constant": true
    },
    {
      "inputs": [
        {
          "internalType": "address",
          "name": "_donor",
          "type": "address"
        },
        {
          "internalType": "string",
          "name": "_hospital",
          "type": "string"
        }
      ],
      "name": "donateBlood",
      "outputs": [],
      "stateMutability": "nonpayable",
      "type": "function"
    },
    {
      "inputs": [
        {
          "internalType": "bytes32",
          "name": "donorId",
          "type": "bytes32"
        }
      ],
      "name": "requestDonation",
      "outputs": [],
      "stateMutability": "nonpayable",
      "type": "function"
    },
    {
      "inputs": [
        {
          "internalType": "bytes32",
          "name": "donorId",
          "type": "bytes32"
        },
        {
          "internalType": "string",
          "name": "bloodGroup",
          "type": "string"
        }
      ],
      "name": "collectSample",
      "outputs": [],
      "stateMutability": "nonpayable",
      "type": "function"
    },
    {
      "inputs": [
        {
          "internalType": "bytes32",
          "name": "donorId",
          "type": "bytes32"
        }
      ],
      "name": "storeBlood",
      "outputs": [],
      "stateMutability": "nonpayable",
      "type": "function"
    },
    {
      "inputs": [
        {
          "internalType": "bytes32",
          "name": "donorId",
          "type": "bytes32"
        }
      ],
      "name": "transportBlood",
      "outputs": [],
      "stateMutability": "nonpayable",
      "type": "function"
    },
    {
      "inputs": [
        {
          "internalType": "bytes32",
          "name": "donorId",
          "type": "bytes32"
        }
      ],
      "name": "useBlood",
      "outputs": [],
      "stateMutability": "nonpayable",
      "type": "function"
    }
  ],
  "bytecode": "0x608060405234801561001057600080fd5b50610b47806100206000396000f3fe608060405234801561001057600080fd5b506004361061007d5760003560e01c806377b87a441161005b57806377b87a44146100ed5780639c0b259414610109578063acd94cb614610125578063be88f9d4146101415761007d565b8063104187cf146100825780635e1eee67146100b55780636c0b6deb146100d1575b600080fd5b61009c6004803603810190610097919061064c565b61015d565b6040516100ac94939291906107b1565b60405180910390f35b6100cf60048036038101906100ca919061064c565b610222565b005b6100eb60048036038101906100e6919061064c565b61029a565b005b6101076004803603810190610102919061064c565b61038d565b005b610123600480360381019061011e919061064c565b610405565b005b61013f600480360381019061013a9190610932565b61047d565b005b61015b600480360381019061015691906109ec565b610520565b005b600060205280600052604060002060009150905080600001549080600101805461018690610a77565b80601f01602080910402602001604051908101604052809291908181526020018280546101b290610a77565b80156101ff5780601f106101d4576101008083540402835291602001916101ff565b820191906000526020600020905b8154815290600101906020018083116101e257829003601f168201915b5050505050908060020160009054906101000a900460ff16908060030154905084565b600360008083815260200190815260200160002060020160006101000a81548160ff0219169083600581111561025b5761025a610721565b5b02179055507fe0796cad4677cef5bf37f12bc03e33b2688026aec001ca08802c02385f2835598160405161028f9190610aa9565b60405180910390a150565b6040518060800160405280828152602001604051806020016040528060008152508152602001600060058111156102d4576102d3610721565b5b81526020014281525060008083815260200190815260200160002060008201518160000155602082015181600101908051906020019061031592919061055f565b5060408201518160020160006101000a81548160ff0219169083600581111561034157610340610721565b5b0217905550606082015181600301559050507fd3bdb2ad667721c223e6421d494a59adfc3e9e5f7d6572df91e176a4c9faa924816040516103829190610aa9565b60405180910390a150565b600560008083815260200190815260200160002060020160006101000a81548160ff021916908360058111156103c6576103c5610721565b5b02179055507f521296fc148dbc72d9861273c6ce92af4801335e1038c9f9309bdc32bdb39ca7816040516103fa9190610aa9565b60405180910390a150565b600460008083815260200190815260200160002060020160006101000a81548160ff0219169083600581111561043e5761043d610721565b5b02179055507f9fc2421d5e249d4b7fb6eea7a16e34cfe2131777e3364be7c0efa6627a9b9b3a816040516104729190610aa9565b60405180910390a150565b8060008084815260200190815260200160002060010190805190602001906104a692919061055f565b50600160008084815260200190815260200160002060020160006101000a81548160ff021916908360058111156104e0576104df610721565b5b02179055507f4db3893d2ac7d20762dc40d5ab0273dd98d35ff32040a5ba962053579ebb64eb826040516105149190610aa9565b60405180910390a15050565b7f2ea9de603e0e36514d4197fd4b4ff382d66397eebe418c38574ef4d3fe33486f82824260405161055393929190610ad3565b60405180910390a15050565b82805461056b90610a77565b90600052602060002090601f01602090048101928261058d57600085556105d4565b82601f106105a657805160ff19168380011785556105d4565b828001600101855582156105d4579182015b828111156105d35782518255916020019190600101906105b8565b5b5090506105e191906105e5565b5090565b5b808211156105fe5760008160009055506001016105e6565b5090565b6000604051905090565b600080fd5b600080fd5b6000819050919050565b61062981610616565b811461063457600080fd5b50565b60008135905061064681610620565b92915050565b6000602082840312156106625761066161060c565b5b600061067084828501610637565b91505092915050565b61068281610616565b82525050565b600081519050919050565b600082825260208201905092915050565b60005b838110156106c25780820151818401526020810190506106a7565b838111156106d1576000848401525b50505050565b6000601f19601f8301169050919050565b60006106f382610688565b6106fd8185610693565b935061070d8185602086016106a4565b610716816106d7565b840191505092915050565b7f4e487b7100000000000000000000000000000000000000000000000000000000600052602160045260246000fd5b6006811061076157610760610721565b5b50565b600081905061077282610750565b919050565b600061078282610764565b9050919050565b61079281610777565b82525050565b6000819050919050565b6107ab81610798565b82525050565b60006080820190506107c66000830187610679565b81810360208301526107d881866106e8565b90506107e76040830185610789565b6107f460608301846107a2565b95945050505050565b600080fd5b600080fd5b7f4e487b7100000000000000000000000000000000000000000000000000000000600052604160045260246000fd5b61083f826106d7565b810181811067ffffffffffffffff8211171561085e5761085d610807565b5b80604052505050565b6000610871610602565b905061087d8282610836565b919050565b600067ffffffffffffffff82111561089d5761089c610807565b5b6108a6826106d7565b9050602081019050919050565b82818337600083830152505050565b60006108d56108d084610882565b610867565b9050828152602081018484840111156108f1576108f0610802565b5b6108fc8482856108b3565b509392505050565b600082601f830112610919576109186107fd565b5b81356109298482602086016108c2565b91505092915050565b600080604083850312156109495761094861060c565b5b600061095785828601610637565b925050602083013567ffffffffffffffff81111561097857610977610611565b5b61098485828601610904565b9150509250929050565b600073ffffffffffffffffffffffffffffffffffffffff82169050919050565b60006109b98261098e565b9050919050565b6109c9816109ae565b81146109d457600080fd5b50565b6000813590506109e6816109c0565b92915050565b60008060408385031215610a0357610a0261060c565b5b6000610a11858286016109d7565b925050602083013567ffffffffffffffff811115610a3257610a31610611565b5b610a3e85828601610904565b9150509250929050565b7f4e487b7100000000000000000000000000000000000000000000000000000000600052602260045260246000fd5b60006002820490506001821680610a8f57607f821691505b60208210811415610aa357610aa2610a48565b5b50919050565b6000602082019050610abe6000830184610679565b92915050565b610acd816109ae565b82525050565b6000606082019050610ae86000830186610ac4565b8181036020830152610afa81856106e8565b9050610b0960408301846107a2565b94935050505056fea26469706673582212207820b3210a625a51d0302f20ed7c94fb5deff3c6474fad91e5c880aa32cb038664736f6c634300080c0033",
  "immutableReferences": {},
  "source": "// SPDX-License-Identifier: MIT\r\npragma solidity ^0.8.0;\r\n// donor->hospital->bloodbank->patient\r\ncontract BloodSupplyChain {\r\n\r\n    enum BloodStatus {\r\n        Requested,\r\n        SampleCollected,\r\n        Tested,\r\n        Stored,\r\n        Transported,\r\n        Used\r\n    }\r\n\r\n    struct BloodUnit {\r\n        bytes32 donorId;\r\n        string bloodGroup;\r\n        BloodStatus status;\r\n        uint timestamp;\r\n    }\r\n\r\n    mapping(bytes32 => BloodUnit) public bloodUnits;\r\n\r\n    event DonationRequested(bytes32 donorId);\r\n    event SampleCollected(bytes32 donorId);\r\n    event BloodStored(bytes32 donorId);\r\n    event BloodTransported(bytes32 donorId);\r\n    event BloodUsed(bytes32 donorId);\r\n    event BloodDonated(address donor, string hospital, uint time);\r\n\r\n    function donateBlood(address _donor, string memory _hospital) public {\r\n        emit BloodDonated(_donor, _hospital, block.timestamp);\r\n    }\r\n\r\n\r\n    function requestDonation(bytes32 donorId) public {\r\n        bloodUnits[donorId] = BloodUnit(\r\n            donorId,\r\n            \"\",\r\n            BloodStatus.Requested,\r\n            block.timestamp\r\n        );\r\n        emit DonationRequested(donorId);\r\n    }\r\n\r\n    function collectSample(bytes32 donorId, string memory bloodGroup) public {\r\n        bloodUnits[donorId].bloodGroup = bloodGroup;\r\n        bloodUnits[donorId].status = BloodStatus.SampleCollected;\r\n        emit SampleCollected(donorId);\r\n    }\r\n\r\n    function storeBlood(bytes32 donorId) public {\r\n        bloodUnits[donorId].status = BloodStatus.Stored;\r\n        emit BloodStored(donorId);\r\n    }\r\n\r\n    function transportBlood(bytes32 donorId) public {\r\n        bloodUnits[donorId].status = BloodStatus.Transported;\r\n        emit BloodTransported(donorId);\r\n    }\r\n\r\n    function useBlood(bytes32 donorId) public {\r\n        bloodUnits[donorId].status = BloodStatus.Used;\r\n        emit BloodUsed(donorId);\r\n    }\r\n}\r\n",
  "sourcePath": "C:\\Users\\Admin\\OneDrive\\Documents\\sej\\TY\\project last sem\\BLOOD-DONATION-SUPPLY-CHAIN-TRACEABILITY\\contracts\\BloodSupplyChain.sol",
  "compiler": {
    "name": "solc",
    "version": "0.8.12+commit.f00d7308.Emscripten.clang"
  },
  "schemaVersion": "3.4.16",
  "updatedAt": "2026-01-01T09:57:52.364Z",
  "networkType": "ethereum",
  "devdoc": {
    "kind": "dev",
    "methods": {},
    "version": 1
  },
  "userdoc": {
    "kind": "user",
    "methods": {},
    "version": 1
  }
}