{
  "contractName": "TestingLab",
  "abi": [
    {
      "anonymous": false,
      "inputs": [
        {
          "indexed": false,
          "internalType": "bytes32",
          "name": "donorId",
          "type": "bytes32"
        },
        {
          "indexed": false,
          "internalType": "bool",
          "name": "eligible",
          "type": "bool"
        },
        {
          "indexed": false,
          "internalType": "string",
          "name": "remarks",
          "type": "string"
        }
      ],
      "name": "BloodTested",
      "type": "event"
    },
    {
      "inputs": [
        {
          "internalType": "bytes32",
          "name": "",
          "type": "bytes32"
        }
      ],
      "name": "testReports",
      "outputs": [
        {
          "internalType": "bytes32",
          "name": "donorId",
          "type": "bytes32"
        },
        {
          "internalType": "bool",
          "name": "eligible",
          "type": "bool"
        },
        {
          "internalType": "string",
          "name": "remarks",
          "type": "string"
        },
        {
          "internalType": "uint256",
          "name": "timestamp",
          "type": "uint256"
        }
      ],
      "stateMutability": "view",
      "type": "function",
      "constant": true
    },
    {
      "inputs": [
        {
          "internalType": "bytes32",
          "name": "donorId",
          "type": "bytes32"
        },
        {
          "internalType": "bool",
          "name": "eligible",
          "type": "bool"
        },
        {
          "internalType": "string",
          "name": "remarks",
          "type": "string"
        }
      ],
      "name": "testBlood",
      "outputs": [],
      "stateMutability": "nonpayable",
      "type": "function"
    },
    {
      "inputs": [
        {
          "internalType": "bytes32",
          "name": "donorId",
          "type": "bytes32"
        }
      ],
      "name": "getTestResult",
      "outputs": [
        {
          "internalType": "bool",
          "name": "",
          "type": "bool"
        },
        {
          "internalType": "string",
          "name": "",
          "type": "string"
        }
      ],
      "stateMutability": "view",
      "type": "function",
      "constant": true
    }
  ],
  "bytecode": "0x608060405234801561001057600080fd5b50610865806100206000396000f3fe608060405234801561001057600080fd5b50600436106100415760003560e01c80630398affc1461004657806336dbc17114610077578063c1c95e9414610093575b600080fd5b610060600480360381019061005b919061043b565b6100c6565b60405161006e92919061051c565b60405180910390f35b610091600480360381019061008c91906106ad565b6101c0565b005b6100ad60048036038101906100a8919061043b565b610289565b6040516100bd9493929190610744565b60405180910390f35b600060606000806000858152602001908152602001600020604051806080016040529081600082015481526020016001820160009054906101000a900460ff1615151515815260200160028201805461011e906107bf565b80601f016020809104026020016040519081016040528092919081815260200182805461014a906107bf565b80156101975780601f1061016c57610100808354040283529160200191610197565b820191906000526020600020905b81548152906001019060200180831161017a57829003601f168201915b505050505081526020016003820154815250509050806020015181604001519250925050915091565b60405180608001604052808481526020018315158152602001828152602001428152506000808581526020019081526020016000206000820151816000015560208201518160010160006101000a81548160ff021916908315150217905550604082015181600201908051906020019061023b92919061034e565b50606082015181600301559050507ffcf840b656b8a296328f1279a4ddd9301f8d8f9d5653e157404fd8fb521d301083838360405161027c939291906107f1565b60405180910390a1505050565b60006020528060005260406000206000915090508060000154908060010160009054906101000a900460ff16908060020180546102c5906107bf565b80601f01602080910402602001604051908101604052809291908181526020018280546102f1906107bf565b801561033e5780601f106103135761010080835404028352916020019161033e565b820191906000526020600020905b81548152906001019060200180831161032157829003601f168201915b5050505050908060030154905084565b82805461035a906107bf565b90600052602060002090601f01602090048101928261037c57600085556103c3565b82601f1061039557805160ff19168380011785556103c3565b828001600101855582156103c3579182015b828111156103c25782518255916020019190600101906103a7565b5b5090506103d091906103d4565b5090565b5b808211156103ed5760008160009055506001016103d5565b5090565b6000604051905090565b600080fd5b600080fd5b6000819050919050565b61041881610405565b811461042357600080fd5b50565b6000813590506104358161040f565b92915050565b600060208284031215610451576104506103fb565b5b600061045f84828501610426565b91505092915050565b60008115159050919050565b61047d81610468565b82525050565b600081519050919050565b600082825260208201905092915050565b60005b838110156104bd5780820151818401526020810190506104a2565b838111156104cc576000848401525b50505050565b6000601f19601f8301169050919050565b60006104ee82610483565b6104f8818561048e565b935061050881856020860161049f565b610511816104d2565b840191505092915050565b60006040820190506105316000830185610474565b818103602083015261054381846104e3565b90509392505050565b61055581610468565b811461056057600080fd5b50565b6000813590506105728161054c565b92915050565b600080fd5b600080fd5b7f4e487b7100000000000000000000000000000000000000000000000000000000600052604160045260246000fd5b6105ba826104d2565b810181811067ffffffffffffffff821117156105d9576105d8610582565b5b80604052505050565b60006105ec6103f1565b90506105f882826105b1565b919050565b600067ffffffffffffffff82111561061857610617610582565b5b610621826104d2565b9050602081019050919050565b82818337600083830152505050565b600061065061064b846105fd565b6105e2565b90508281526020810184848401111561066c5761066b61057d565b5b61067784828561062e565b509392505050565b600082601f83011261069457610693610578565b5b81356106a484826020860161063d565b91505092915050565b6000806000606084860312156106c6576106c56103fb565b5b60006106d486828701610426565b93505060206106e586828701610563565b925050604084013567ffffffffffffffff81111561070657610705610400565b5b6107128682870161067f565b9150509250925092565b61072581610405565b82525050565b6000819050919050565b61073e8161072b565b82525050565b6000608082019050610759600083018761071c565b6107666020830186610474565b818103604083015261077881856104e3565b90506107876060830184610735565b95945050505050565b7f4e487b7100000000000000000000000000000000000000000000000000000000600052602260045260246000fd5b600060028204905060018216806107d757607f821691505b602082108114156107eb576107ea610790565b5b50919050565b6000606082019050610806600083018661071c565b6108136020830185610474565b818103604083015261082581846104e3565b905094935050505056fea264697066735822122017f4d8a7ae5115c2c445a6df69025268acbcc0381d412f767911848ccb5ee7f264736f6c634300080c0033",
  "immutableReferences": {},
  "source": "// SPDX-License-Identifier: MIT\r\npragma solidity ^0.8.0;\r\n// bloodtesting and eligibility\r\ncontract TestingLab {\r\n\r\n    struct TestReport {\r\n        bytes32 donorId;\r\n        bool eligible;\r\n        string remarks;\r\n        uint timestamp;\r\n    }\r\n\r\n    mapping(bytes32 => TestReport) public testReports;\r\n\r\n    event BloodTested(bytes32 donorId, bool eligible, string remarks);\r\n\r\n    function testBlood(\r\n        bytes32 donorId,\r\n        bool eligible,\r\n        string memory remarks\r\n    ) public {\r\n        testReports[donorId] = TestReport(\r\n            donorId,\r\n            eligible,\r\n            remarks,\r\n            block.timestamp\r\n        );\r\n\r\n        emit BloodTested(donorId, eligible, remarks);\r\n    }\r\n\r\n    function getTestResult(bytes32 donorId)\r\n        public\r\n        view\r\n        returns (bool, string memory)\r\n    {\r\n        TestReport memory report = testReports[donorId];\r\n        return (report.eligible, report.remarks);\r\n    }\r\n}\r\n",
  "sourcePath": "C:\\Users\\Admin\\OneDrive\\Documents\\sej\\TY\\project last sem\\BLOOD-DONATION-SUPPLY-CHAIN-TRACEABILITY\\contracts\\TestingLab.sol",
  "compiler": {
    "name": "solc",
    "version": "0.8.12+commit.f00d7308.Emscripten.clang"
  },
  "schemaVersion": "3.4.16",
  "updatedAt": "2026-01-01T09:57:52.111Z",
  "networkType": "ethereum",
  "devdoc": {
    "kind": "dev",
    "methods": {},
    "version": 1
  },
  "userdoc": {
    "kind": "user",
    "methods": {},
    "version": 1
  }
}