{
  "contractName": "UserRegistry",
  "abi": [
    {
      "inputs": [
        {
          "internalType": "string",
          "name": "_username",
          "type": "string"
        },
        {
          "internalType": "string",
          "name": "_password",
          "type": "string"
        },
        {
          "internalType": "string",
          "name": "_role",
          "type": "string"
        }
      ],
      "name": "registerUser",
      "outputs": [],
      "stateMutability": "nonpayable",
      "type": "function"
    },
    {
      "inputs": [
        {
          "internalType": "string",
          "name": "_username",
          "type": "string"
        },
        {
          "internalType": "string",
          "name": "_password",
          "type": "string"
        }
      ],
      "name": "loginUser",
      "outputs": [
        {
          "internalType": "bool",
          "name": "",
          "type": "bool"
        },
        {
          "internalType": "string",
          "name": "",
          "type": "string"
        }
      ],
      "stateMutability": "view",
      "type": "function",
      "constant": true
    }
  ],
  "bytecode": "0x608060405234801561001057600080fd5b506107fd806100206000396000f3fe608060405234801561001057600080fd5b50600436106100365760003560e01c806322ce12e51461003b578063d637dcfa1461006c575b600080fd5b610055600480360381019061005091906104b5565b610088565b6040516100639291906105d0565b60405180910390f35b61008660048036038101906100819190610600565b610192565b005b6000606082805190602001206000856040516100a491906106e3565b90815260200160405180910390206000015414156101745760016000856040516100ce91906106e3565b90815260200160405180910390206001018080546100eb90610729565b80601f016020809104026020016040519081016040528092919081815260200182805461011790610729565b80156101645780601f1061013957610100808354040283529160200191610164565b820191906000526020600020905b81548152906001019060200180831161014757829003601f168201915b505050505090509150915061018b565b600060405180602001604052806000815250915091505b9250929050565b6000836040516101a291906106e3565b908152602001604051809103902060020160009054906101000a900460ff1615610201576040517f08c379a00000000000000000000000000000000000000000000000000000000081526004016101f8906107a7565b60405180910390fd5b60008260405160200161021491906106e3565b60405160208183030381529060405280519060200120905060405180606001604052808281526020018381526020016001151581525060008560405161025a91906106e3565b908152602001604051809103902060008201518160000155602082015181600101908051906020019061028e9291906102b8565b5060408201518160020160006101000a81548160ff02191690831515021790555090505050505050565b8280546102c490610729565b90600052602060002090601f0160209004810192826102e6576000855561032d565b82601f106102ff57805160ff191683800117855561032d565b8280016001018555821561032d579182015b8281111561032c578251825591602001919060010190610311565b5b50905061033a919061033e565b5090565b5b8082111561035757600081600090555060010161033f565b5090565b6000604051905090565b600080fd5b600080fd5b600080fd5b600080fd5b6000601f19601f8301169050919050565b7f4e487b7100000000000000000000000000000000000000000000000000000000600052604160045260246000fd5b6103c282610379565b810181811067ffffffffffffffff821117156103e1576103e061038a565b5b80604052505050565b60006103f461035b565b905061040082826103b9565b919050565b600067ffffffffffffffff8211156104205761041f61038a565b5b61042982610379565b9050602081019050919050565b82818337600083830152505050565b600061045861045384610405565b6103ea565b90508281526020810184848401111561047457610473610374565b5b61047f848285610436565b509392505050565b600082601f83011261049c5761049b61036f565b5b81356104ac848260208601610445565b91505092915050565b600080604083850312156104cc576104cb610365565b5b600083013567ffffffffffffffff8111156104ea576104e961036a565b5b6104f685828601610487565b925050602083013567ffffffffffffffff8111156105175761051661036a565b5b61052385828601610487565b9150509250929050565b60008115159050919050565b6105428161052d565b82525050565b600081519050919050565b600082825260208201905092915050565b60005b83811015610582578082015181840152602081019050610567565b83811115610591576000848401525b50505050565b60006105a282610548565b6105ac8185610553565b93506105bc818560208601610564565b6105c581610379565b840191505092915050565b60006040820190506105e56000830185610539565b81810360208301526105f78184610597565b90509392505050565b60008060006060848603121561061957610618610365565b5b600084013567ffffffffffffffff8111156106375761063661036a565b5b61064386828701610487565b935050602084013567ffffffffffffffff8111156106645761066361036a565b5b61067086828701610487565b925050604084013567ffffffffffffffff8111156106915761069061036a565b5b61069d86828701610487565b9150509250925092565b600081905092915050565b60006106bd82610548565b6106c781856106a7565b93506106d7818560208601610564565b80840191505092915050565b60006106ef82846106b2565b915081905092915050565b7f4e487b7100000000000000000000000000000000000000000000000000000000600052602260045260246000fd5b6000600282049050600182168061074157607f821691505b60208210811415610755576107546106fa565b5b50919050565b7f5573657220616c72656164792065786973747300000000000000000000000000600082015250565b6000610791601383610553565b915061079c8261075b565b602082019050919050565b600060208201905081810360008301526107c081610784565b905091905056fea2646970667358221220abd37acdd2ae7d3caf4de05ace575dda5e47f1c832c60fe925c2da8092cbb2ae64736f6c634300080c0033",
  "immutableReferences": {},
  "source": "   // SPDX-License-Identifier: MIT\r\n\r\n    // struct User {\r\n    //     string name;\r\n    //     string role;\r\n    //     bool isRegistered;\r\n    // }\r\n\r\n    // mapping(address => User) public users;\r\n\r\n    // event UserRegistered(address userAddress, string name, string role);\r\n\r\n    // function registerUser(string memory name, string memory role) public {\r\n    //     require(!users[msg.sender].isRegistered, \"User already registered\");\r\n\r\n    //     users[msg.sender] = User({\r\n    //         name: name,\r\n    //         role: role,\r\n    //         isRegistered: true\r\n    //     });\r\n\r\npragma solidity ^0.8.0;\r\n\r\ncontract UserRegistry {\r\n\r\n    struct User {\r\n        bytes32 passwordHash;\r\n        string role;\r\n        bool exists;\r\n    }\r\n    mapping(string => User) private users;\r\n\r\n    // function registerUser(\r\n    //     string memory _username,\r\n    //     string memory _password,\r\n    //     string memory _role\r\n    // ) public {\r\n    //     require(!users[_username].exists, \"User already exists\");\r\n\r\n    //     users[_username] = User(\r\n    //         _username,\r\n    //         _password,\r\n    //         _role,\r\n    //         true\r\n    //     );\r\n    // }\r\n\r\n    function registerUser(\r\n        string memory _username,\r\n        string memory _password,\r\n        string memory _role\r\n    ) public {\r\n        require(!users[_username].exists, \"User already exists\");\r\n        bytes32 hash = keccak256(abi.encodePacked(_password));\r\n        users[_username] = User({\r\n            passwordHash: hash,\r\n            role: _role,\r\n            exists: true\r\n            });\r\n            }\r\n\r\n    function loginUser(\r\n        string memory _username,\r\n        string memory _password\r\n    ) public view returns (bool, string memory) {\r\n\r\n        if (\r\n            users[_username].passwordHash ==\r\n            keccak256(bytes(_password))\r\n        ) {\r\n            return (true, users[_username].role);\r\n        }\r\n\r\n        return (false, \"\");\r\n    }\r\n}\r\n\r\n\r\n\r\n\r\n",
  "sourcePath": "C:\\Users\\Admin\\OneDrive\\Documents\\sej\\TY\\project last sem\\BLOOD-DONATION-SUPPLY-CHAIN-TRACEABILITY\\contracts\\UserRegistry.sol",
  "compiler": {
    "name": "solc",
    "version": "0.8.12+commit.f00d7308.Emscripten.clang"
  },
  "schemaVersion": "3.4.16",
  "updatedAt": "2026-01-01T09:57:51.862Z",
  "networkType": "ethereum",
  "devdoc": {
    "kind": "dev",
    "methods": {},
    "version": 1
  },
  "userdoc": {
    "kind": "user",
    "methods": {},
    "version": 1
  }
}